:020000040800F2
:10000000B807002029020008531C0008A11A0008A4
:10001000511C0008490500083B1E000800000000B4
:10002000000000000000000000000000571C000855
:10003000ED05000800000000551C0008591C0008D0
:10004000430200084302000843020008430200087C
:10005000430200084302000843020008430200086C
:10006000430200084302000843020008430200085C
:10007000430200084302000843020008430200084C
:10008000430200084302000843020008430200083C
:100090004D0500084302000843020008430200081F
:1000A000430200084302000843020008430200081C
:1000B0004302000843020008FD1C00084302000838
:1000C00043020008430200084302000843020008FC
:1000D00043020008430200084302000843020008EC
:1000E00043020008430200084302000843020008DC
:1000F00043020008430200084302000843020008CC
:1001000043020008430200084302000843020008BB
:1001100043020008430200084302000843020008AB
:100120006505000843020008430200084302000876
:100130004302000800000000000000004302000825
:100140005905000843020008430200084302000862
:10015000430200084302000843020008430200086B
:10016000430200084302000843020008430200085B
:1001700043020008430200080000000000000000E5
:10018000430200084302000800F002F800F03CF8C7
:100190000AA090E8000C82448344AAF10107DA45E2
:1001A00001D100F031F8AFF2090EBAE80F0013F0F8
:1001B000010F18BFFB1A43F001031847201D000070
:1001C000401D0000103A24BF78C878C1FAD8520701
:1001D00024BF30C830C144BF04680C6070470000C1
:1001E0000023002400250026103A28BF78C1FBD840
:1001F000520728BF30C148BF0B6070471FB501F0E0
:100200005BFE1FBD10B510BD00F0CFF81146FFF723
:10021000F5FF01F023FE00F0EDF803B4FFF7F2FF65
:1002200003BC00F0F5F80000094880470948004782
:10023000FEE7FEE7FEE7FEE7FEE7FEE7FEE7FEE796
:10024000FEE7FEE704480549054A064B70470000F3
:10025000ED1C000889010008B8010020B807002043
:10026000B8030020B803002053EA020C00F06980B4
:100270002DE9F04B4FF00006002B1FBFB3FA83F5BA
:1002800003FA05F424FA05F65E4012BF1643B2FAEB
:1002900082F502FA05F4C5F120051EBF22FA05FC1D
:1002A00044EA0C04203556EA044C4FEA144418BFC3
:1002B000641C4FF000084FF00009904271EB030CF2
:1002C00039D3002919BFB1FA81F701FA07F6B0FA5C
:1002D00080F700FA07F6C7F120071EBF20FA07FCD7
:1002E00046EA0C062037B6FBF4FCA7EB0507103FE7
:1002F00007F01F0BCBF120060CFA0BFB2CFA06F6CD
:1003000044BFB3460026202FA4BF5E464FF0000B2B
:100310005BEA060C08BF4FF0010B19EB0B09ABFBB6
:10032000027C48EB0608C01B06FB02CC0BFB03CC8F
:1003300071EB0C01C1E70B46024641464846BDE859
:10034000F08B13B54FF000004FF00001AFF30080C9
:10035000BDE81C4070474FF0000200B513469446BC
:100360009646203922BFA0E80C50A0E80C50B1F10D
:100370002001BFF4F7AF090728BFA0E80C5048BF21
:100380000CC05DF804EB890028BF40F8042B08BFBF
:10039000704748BF20F8022B11F0804F18BF00F8BB
:1003A000012B7047704770477047754600F02CF876
:1003B000AE4605006946534620F00700854618B052
:1003C00020B5FFF73FFFBDE820404FF000064FF09B
:1003D00000074FF000084FF0000B21F00701AC467A
:1003E000ACE8C009ACE8C009ACE8C009ACE8C00999
:1003F0008D46704710B50446AFF300802046BDE837
:100400001040FFF70ABF0000004870475401002069
:1004100001491820ABBEFEE726000200704700002D
:10042000464910B54A6822F440324A604A68436837
:100430001A434A6001684A6822F480724A6001687F
:100440004A68036942EA03224A6001684A6822F066
:1004500040724A6001684A6883681A434A600168CA
:100460008A6822F400628A6001688A68C3681A4355
:100470008A60816A6FF07062D14201688A6822F0F6
:1004800070628A6001688A680CD0836A1A438A6045
:1004900001688A6822F040528A6001688A68C36AEB
:1004A0001A4301E022F040528A6001688A6822F013
:1004B00002028A6001688A68037E42EA43028A6017
:1004C00090F82010002901684A680FD042F40062B9
:1004D0004A6001684A6822F460424A6001684A68DA
:1004E000174C436A04EB43331A4301E022F40062E1
:1004F0004A600168CA6A22F47002CA620168CA6A64
:10050000838B104C04EB03531A43CA6201688A6858
:1005100022F400728A6001688A6890F8303042EAFA
:1005200043228A6001688A6822F480628A600168D6
:100530008A68406942EA8020886010BD002301403B
:1005400000E0FFFF0000F0FFFEE70000014800F0C0
:100550006EB900005C000020014800F068B900009E
:1005600084000020014800F079BB0000F400002066
:1005700001681823CAB2103AB2FBF3F2054B6FF3CD
:100580000901032A9B5CC36500D9091D81650846E2
:1005900070470000C21E000810B5014600208B699C
:1005A0008A6A4FF0C07453B1B3F5005F15D072B1D1
:1005B000012A0CD0022A0AD0032A09D104E01AB178
:1005C000012A06D0022A03D1C96AC90100D5012037
:1005D00010BDC96AA142FAD010BD002AF7D0012A85
:1005E000F2D0022AF3D0032AF3D010BD704772B6BE
:1005F000FEE7000078B50024009490F83C20012A22
:1006000019D0012280F83C200A6807230568092ACE
:1006100013D9EE680A3A02EB420293409E43EE6021
:100620000B788A680A3B03EB43039A400368DD6852
:100630002A43DA6010E0022078BD2E6902EB420204
:1006400093409E432E610B788A6803EB43039A40E4
:1006500003681D692A431A614A681F23072A13D2B7
:1006600005686E6B521E02EB820293409E436E63DE
:100670000B790A885B1E92B203EB83039A400368EE
:100680005D6B2A435A6327E005680D2A12D22E6B50
:10069000D21F02EB820293409E432E630B790A889D
:1006A000DB1F92B203EB83039A4003681D6B2A435E
:1006B0001A6311E0EE6A0D3A02EB820293409E4308
:1006C000EE620B790A880D3B92B203EB83039A40EA
:1006D0000368DD6A2A43DA62164B0568144A9D42B4
:1006E00006D10D68122D03D1556845F4800555607B
:1006F00005689D4218D10B68102B01D0112B13D126
:10070000536843F400035360096810290CD10A4967
:100710000A4A0968B1FBF2F101EB8101490000E0EE
:10072000491E00910029FBD180F83C40002078BD93
:1007300000230140002001401000002040420F0033
:1007400070B504004FF0000503D0206C002610B1F6
:1007500007E0012070BD204600F01CF8666484F8B4
:100760003C60206CC00610D4206C20F4885040F00F
:10077000020020642046FFF753FE6664206C20F0E0
:10078000020040F00100206400E0012584F83C6094
:10079000284670BD70B586B0064614216846FFF73E
:1007A000DAFD1D493068884234D11C4800250168B3
:1007B00041F480710160006800F480700590174872
:1007C0001438016841F0010101600068694600F0D9
:1007D00001000590022000900320CDE9010510489A
:1007E00000F076FB104C0F48C4E900050015A56029
:1007F000C4E90350800060618000A0618011C4E9F9
:1008000007052046656200F0F9FA08B1FFF7EFFE30
:10081000B463A66306B070BD0020014044380240B6
:100820000000024010640240F400002070472DE9EF
:10083000F05F0546006800244669D0F80490876898
:10084000D0F80CB0D0F810A0D0F81880F10748D03C
:10085000F90714D001218160B80703D5284600F0BC
:10086000F7F90CE0780702D54FF4006407E0380789
:1008700002D54FF4805402E0284600F0E8F9F8056C
:1008800016D529684FF480708860B80503D52846CE
:1008900000F0E0F90CE0780502D544F4005407E0DC
:1008A000380502D544F4804402E0284600F0D1F92E
:1008B000F80316D529684FF480308860B80303D553
:1008C000284600F0C9F90CE0780302D544F400444E
:1008D00007E0380302D544F4803402E0284600F0F3
:1008E000BAF9300707D55FEACB6004D52968102034
:1008F00044F40074C86070074FF0080707D55FEA3A
:100900000B7004D52868C760284600F09BF9B00733
:1009100006D52868C068800702D0284600F093F901
:10092000700607D55FEACA6004D52968102044F430
:1009300080640861B00607D55FEA0A7004D52868AC
:100940000761284600F080F9F00606D5286800699E
:10095000800702D0284600F078F9B00308D55FEA96
:10096000C96005D5296810204860284600F06EF956
:10097000F00307D55FEA097004D528684760284668
:1009800000F06BF9300446D55FEA497040D5F005B8
:1009900004D55FEAC87001D044F00104B00504D565
:1009A0005FEA887001D544F00204700504D55FEA5F
:1009B000487001D544F00404300529D518F0700FB3
:1009C00026D008F07000402815D006DC102809D089
:1009D00020280AD0302816D10AE050280ED06028EE
:1009E00011D10EE044F008040DE044F010040AE0D8
:1009F00044F0200407E044F0400404E044F08004A4
:100A000001E044F480742868816921F070018161FB
:100A1000296804204860002C05D0686A2043686279
:100A20002846FFF703FFBDE8F09F70B5040003D030
:100A300094F8200010B104E0012070BD204600F0C1
:100A400081F82068016841F00101016000F038FB85
:100A50000546052604E000F033FB401B0A2811D8A8
:100A600020684068C007F6D02068016821F00201C4
:100A7000016000F025FB05460BE000F021FB401B68
:100A80000A2806D9606A40F40030606284F8206069
:100A9000D2E7206840688007EFD4207E01282068D4
:100AA00001683DD021F080010160607E012820684E
:100AB000016838D021F040010160A07E0128206843
:100AC000016833D021F020010160E07E0128206818
:100AD00001682ED041F010010160207F01282068BC
:100AE000016829D021F008010160607F0128206899
:100AF000016824D021F004010160D4E90201084317
:100B0000D4E90412114308436168491E084321686F
:100B1000C86100206062012084F82000002070BDC0
:100B200041F08001C0E741F04001C5E741F02001FC
:100B3000CAE721F01001CFE741F00801D4E741F006
:100B40000401D9E7F0B587B0044614216846FFF7E1
:100B500002FC374B3748DFF8D4E01968D4F800C0FE
:100B6000344A02250326092710300024491CF44585
:100B700024D11960012907D1016841F00071016099
:100B8000006800F000700590106840F001001060EF
:100B9000106802AB00F0010005904FF4C050CDE9A1
:100BA000000583E8D0006946234800F091F900224F
:100BB0001146142000F0F2FA142033E0DFF87CE054
:100BC000F44531D1D0F800C04CF0806CC0F800C0C2
:100BD000D0F800C001290CF0806CCDF814C0196069
:100BE00007D1016841F000710160006800F00070F9
:100BF0000590106840F002001060106802AB00F031
:100C0000020005904FF44050CDE9000583E8D00084
:100C100069460B4800F05CF900221146402000F0C4
:100C2000BDFA402000F0ACFA07B0F0BD006400400F
:100C30000000002030380240000002400068004000
:100C40000004024070477047704770477047704714
:100C50007047704770477047704770472DE9F843F9
:100C600004464FF00009CDF8009063484FF4165148
:100C7000A56D0068B0FBF1F72E6894F85C100820B1
:100C800000FA01F131420FD021680A6852070BD5F2
:100C90000A6822F004020A6094F85C108840A86098
:100CA000606D40F00100606594F85C104FF0010841
:100CB00008FA01F0304208D021684969090604D5D4
:100CC000A860606D40F00200606594F85C1004203C
:100CD0008840304208D021680968890704D5A86097
:100CE000606D40F00400606594F85C10102088404E
:100CF000304218D021680968090714D5A860206817
:100D00000168490304D50068000308D5A16C07E019
:100D10000168C90503D4016821F008010160216C54
:100D200009B12046884794F85C1020208840304262
:100D300031D021680968C9062DD5A86094F835001E
:100D400005282068016806D0490347D500680003DC
:100D50001DD4616C1CE021F016010160206841691E
:100D600021F080014161206C08B9A06C20B120689D
:100D7000016821F00801016094F85C103F20884070
:100D8000A86084F8358084F83490216D1FE0E16B11
:100D900009B120468847606D00282BD0606DC007E0
:100DA00014D0052084F835002068016821F0010185
:100DB00001600098401C0090B84203D82068006889
:100DC000C007F6D184F8358084F83490E16C0029AE
:100DD00010D001B02046BDE8F04308470168C905BE
:100DE000D5D4016821F01001016084F8358084F8C1
:100DF0003490CCE7BDE8F883100000202DE9F041E5
:100E0000044600F05DF906465CB1022084F8350026
:100E1000002584F834502068016821F00101016048
:100E20000DE00120BDE8F08100F04AF9801B0528A3
:100E300005D920206065032084F83500F2E720689A
:100E40000068C007F0D12268116820480140D4E949
:100E500001031843D4E90336334318436369184345
:100E6000A3691843E3691843236A18430843616A76
:100E7000042903D1D4E90B131943084310602068F7
:100E80004069666A20F0070130460E4301270428B6
:100E90000CD1A06A0643E06A40B12046FFF77CFB14
:100EA00020B14020606584F83570BAE7206846615B
:100EB0002046FFF75DFB94F85C203F219140816064
:100EC000656584F835700020ACE700003F8010F0C5
:100ED0002DE9F84FDFF8BCA10022012503264FF0D1
:100EE0000F090AF1040BAAF1040E00BF0B6805FA02
:100EF00002F42340A34270D10F7907F00307012FBA
:100F000001D0022F16D187684FEA420806FA08FC82
:100F100027EA0C07D1F80CC00CFA08FC4CEA070CC5
:100F2000C0F808C04768A7430C79C4F30014944084
:100F30003C4344600C79E443A4070AD0C4684FEAF8
:100F4000420C06FA0CF7BC438F6807FA0CF72743EC
:100F5000C7600C7904F00304022C12D1D40800EB12
:100F6000840CDCF820405707FF0E09FA07F824EA42
:100F70000804D1F8108008FA07F848EA0408CCF809
:100F8000208004684FEA420C06FA0CF7BC430F7944
:100F900007F0030707FA0CF7274307604C6814F4BF
:100FA000403F70D03C4C276847F480472760246856
:100FB00022F0030704F480440094384C07EB040C3F
:100FC000DCF8084897074FEA177809FA08F7BC4396
:100FD000334FB84202D1002724E054E0314FB842E9
:100FE00001D101271EE0304FB84201D1022719E09C
:100FF0002E4FB84201D1032714E02D4FB84201D142
:1010000004270FE02B4FB84201D105270AE02A4FF1
:10101000B84201D1062705E0284FB84201D1072781
:1010200000E0082707FA08F72743CCF80878DAF831
:1010300000405746D1F804C09C435FEACC2C00D551
:101040001C433C60DBF800405F46D1F804C09C4381
:101050005FEA8C2C00D51C433C60DEF800407746EC
:10106000D1F804C09C435FEA8C3C00D51C433C6033
:10107000084F083F3C68D1F804C09C435FEACC3C71
:1010800000D51C433C60521C102AFFF42FAFBDE872
:10109000F88F0000083C0140443802400030014015
:1010A000000002400004024000080240000C024020
:1010B000001002400014024000180240001C0240D0
:1010C00001488068704700000400002002488168E1
:1010D0000278114481607047040000200B4810B56D
:1010E000016841F400710160016841F480610160B0
:1010F000016841F480710160032000F06FF80F2057
:1011000000F006F800F024F8002010BD003C02407A
:1011100070B50D4D04464FF47A712878B1FBF0F0AC
:101120000A490968B1FBF0F000F0EAFA48B9102C5E
:1011300007D200222146501E00F030F800206C60DB
:1011400070BD012070BD00000400002010000020D0
:101150000A4808B5016841F480410160006800F464
:10116000804000900548001F016841F080510160F7
:10117000006800F08050009008BD00004438024034
:10118000002809DB00F01F02012191404009800086
:1011900000F1E020C0F8001170470000F0B40E4BE1
:1011A0001B680C46C3F30223C3F10705042D00D9C5
:1011B0000425191D072901D2002300E0DB1E0126AA
:1011C00006FA05F1491E214099409E40761E1640C0
:1011D0003143F0BC00F032BE0CED00E0064900F0F7
:1011E000070208684FF6FF03184040EA0220034A4E
:1011F00010430860704700000CED00E00000FA05A5
:101200002DE9F0470E46050065D0DFF81481D8F8C7
:101210000000F7B200F00700B04207D288F8007073
:10122000D8F8000000F00700B04254D128683D4CC7
:10123000810712D5400703D5206840F4E0502060B4
:101240002878000703D5206840F4604020602068BB
:10125000A96820F0F000084320602878C0072DD04E
:10126000304968680839012812D0022813D00328B1
:1012700011D00968890700292DDA216821F00301BE
:1012800001432160FFF71CFF814641F2883A0EE0DE
:1012900009688903EFE709688901ECE7FFF710FFA8
:1012A000A0EB0901514502D90320BDE8F087206871
:1012B000696800F00C00B0EB810FEFD1D8F8001096
:1012C000404601F00701B14207D90770006800F0FD
:1012D0000700B04201D00120E7E72878400705D594
:1012E0002068E96820F4E05008432060287800076F
:1012F00006D52068296920F4604040EAC1002060DA
:1013000000F018F82168084AC1F30311515CC84085
:101310000649086006480068FFF7FAFE0020C4E7A7
:10132000003C024008380240CA1E0008100000209D
:1013300008000020154810B5006810F00C02144891
:1013400013D04110042A0FD0082A0ED10F4C241FAD
:101350002268236802F03F025B0207D52068C0F3D1
:101360008810A0FB010106E0084610BD2168C1F30A
:101370008811A1FB00010023FEF776FF2168C1F36D
:101380000141491C4900B0FBF1F010BD0838024092
:101390000024F4002DE9F84F04006ED02078DFF827
:1013A0004C93C007A9F104054AD009F10400016873
:1013B000C1F38101012908D00068C0F3810002282F
:1013C0000AD1D9F80000400206D52868800337D535
:1013D00060680028E1D033E06068B0F5803F10D04D
:1013E000B0F5A02F286810D020F48030286028683D
:1013F00020F4802028606068A8B1FFF761FE0646EF
:101400000DE0286840F48030F4E740F48020286044
:10141000F7E700BFFFF754FE801B642873D82868E5
:101420008003F7D50CE0FFF74BFE064605E000BF52
:10143000FFF746FE801B6428F0D828688003F7D4A5
:101440002078DFF8AC8280074FF0000A3ED5A7482D
:10145000001D016811F00C0F08D00068C0F3810076
:1014600002280BD1D9F80000400207D42868800771
:1014700016D5E068012800D112E033E1E068B8B188
:101480000120C8F80000FFF71BFE064605E000BF7C
:10149000FFF716FE801B0228C0D828688007F7D502
:1014A0002868216920F0F80040EAC10028600DE0BA
:1014B000C8F800A0FFF704FE064604E0FFF700FEB0
:1014C000801B02281FD828688007F7D420780007DF
:1014D00022D5864F87486169703771B1012101605B
:1014E000FFF7EEFD064604E0FFF7EAFD801B022849
:1014F00009D838688007F7D50EE0C0F800A0FFF7DC
:10150000DFFD064605E082E0FFF7DAFD801B0228DA
:101510007DD838688007F7D42078400768D5DFF891
:10152000CCB100270BF13C0BDBF80000C0000BD462
:10153000DBF8001041F08051CBF80010DBF8000020
:10154000012700F0805000906B4E3068C00510D429
:10155000306840F480703060FFF7B2FD009005E025
:10156000FFF7AEFD0099401A022850D83068C00538
:10157000F6D55E4EA0686C3601280FD0052830687D
:1015800010D020F001003060306820F0040030609E
:10159000A068B8B1FFF794FD00900FE0306840F00C
:1015A0000100F4E740F004003060F7E7FFF788FD42
:1015B0000099411A41F28830814266D8306880072C
:1015C000F4D50EE0FFF77CFD009007E0FFF778FD13
:1015D0000099411A41F28830814256D8306880071C
:1015E000F4D42FB1DBF8001021F08051CBF80010BB
:1015F000A069C8B33D49091D0968C1F381010229E9
:101600004AD00228504607D0C8F8600000E03CE00D
:10161000FFF756FD04463BE04746C8F86000FFF779
:101620004FFD064605E000BFFFF74AFD801B02287C
:101630002BD828688001F7D4D4E907010843A16AB0
:101640002E4A490802EB0141626A41EA82110843CD
:1016500094F82C1040EA0161C9F8001001203866A6
:10166000FFF72EFD044606E03EE000BFFFF728FD31
:10167000001B022809D828688001F7D534E000BF94
:10168000FFF71EFD001B022802D90320BDE8F88FDA
:1016900028688001F4D427E00128F7D0D9F80000A9
:1016A000E26900F4800191421CD1226A00F03F01FE
:1016B000914217D147F6C071626A0140B1EB821FB7
:1016C00010D1A26A4FF0FF3300F4403103EB520215
:1016D000B1EB024F06D194F82C1000F07060B0EB23
:1016E000016F01D00120D1E70020CFE7043802408C
:1016F00000004742800E4742007000400000FFFF9C
:1017000010B5401EB0F1807F01D3012010BD4FF015
:10171000E02460610F21601700F090FB0020A061C1
:1017200007202061002010BD7047704770B590F809
:101730003C20012A32D0012480F83C40022280F86B
:101740003D2003685A689D6822F070060A6832439B
:101750005A60134B02689A4214D0B2F1804F11D0F4
:10176000104B9A420ED0104B9A420BD00F4B9A421C
:1017700008D00F4B9A4205D00E4B9A4202D00E4B26
:101780009A4204D1496825F080031943916080F89A
:101790003D40002180F83C10084670BD022070BD1D
:1017A000000001400004004000080040000C004020
:1017B00000040140004001400018004010B5040042
:1017C00003D094F83D0010B107E0012010BD0020C7
:1017D00084F83C00204600F01FF8022084F83D0009
:1017E000211D206800F090FA012084F8460084F85A
:1017F0003E0084F83F0084F8400084F8410084F8FB
:10180000420084F8430084F8440084F8450084F8DA
:101810003D00002010BD000008B500680B4988425B
:1018200012D10B48016841F00401016000680022F8
:1018300000F00400009011461E20FFF7AFFCBDE849
:1018400008401E20FFF79CBC08BD000000080040B7
:101850004038024070B5044690F83C00002501284D
:1018600017D0012684F83C60022084F83D002068EF
:10187000826822F0770222F47F4282600868502852
:1018800038D00DDC20284FD005DC90B3102811D1C2
:101890004AE0022070BD302846D040280AD13BE003
:1018A00060282FD070280DD0B0F5805F03D0B0F540
:1018B000005F12D0012584F83D60002084F83C00D0
:1018C000284670BDCB68D1E90121206800F080FA7C
:1018D0002068816841F0770109E0CB68D1E90121F6
:1018E000206800F075FA2068816841F480418160C9
:1018F000E1E719E0CA684968206800F07BFA5021E6
:10190000206806E0CA684968206800F084FA60210F
:10191000206800F067FACEE7CA684968206800F0DE
:1019200069FA40212068F4E7226801461046F0E792
:10193000704770B50446006801694FF00005C9435F
:10194000890715D4C168C943890711D4E91E01610B
:1019500001202077206880698007204602D0FFF7A9
:10196000E7FF04E000F098F8204600F096F82577AD
:1019700020680169C943490717D4C168C9434907A9
:1019800013D46FF004010161022020772068806980
:1019900010F4407F204602D0FFF7CAFF04E000F0B9
:1019A0007BF8204600F079F8257720680169C94363
:1019B000090716D4C168C943090712D46FF008019A
:1019C0000161042020772068C0698007204602D08A
:1019D000FFF7AEFF04E000F05FF8204600F05DF88E
:1019E000257720680169C943C90617D4C168C9436E
:1019F000C90613D46FF01001016108202077206818
:101A0000C06910F4407F204602D0FFF791FF04E048
:101A100000F042F8204600F040F825772068016980
:101A2000C943C90708D1C168C943C90704D1891E80
:101A30000161204600F032F820680169C9430906B7
:101A400009D4C168C943090605D46FF0800101615A
:101A50002046FFF769FE20680169C943490609D499
:101A6000C168C943490605D46FF0400101612046B1
:101A700000F015F820680169C94389060BD4C168D4
:101A8000C943890607D46FF0200101612046BDE8F3
:101A90007040FFF74ABE70BD70477047704770478F
:101AA000FEE700007FB500211A48009101910291E4
:101AB000174A0391C0E90021012404618160047682
:101AC00080F82010144AC0E90A210225C561C160CE
:101AD00080F830104461FEF733FE08B172B6FEE7BD
:101AE00006200094CDE9014069460A48FEF782FDD0
:101AF00008B172B6FEE71020CDE900056946054839
:101B0000FEF778FD002801D072B6FEE77FBD000029
:101B100000200140140000200100000F0E4810B505
:101B20000C4901600E21416000214FF48032816038
:101B3000C0E9031252014261017641768176C17695
:101B400001774177FEF771FF002801D072B6FEE7FA
:101B500010BD0000006400405C0000200E4810B57D
:101B60000C4901600721416000214FF480328160FF
:101B7000C0E9031252014261017641768176C17655
:101B800001774177FEF751FF002801D072B6FEE7DA
:101B900010BD00000068004084000020114808B516
:101BA000016841F004010160016801F00401009145
:101BB000016841F080010160016801F0800100913D
:101BC000016841F001010160016801F0010100912B
:101BD000016841F002010160006800F0020000901D
:101BE00008BD00003038024010B586B00024174808
:101BF00000940194029403940494134905940160A1
:101C00004AF20F41C0E901140221C0E90314802106
:101C10008161FFF7D3FD08B172B6FEE74FF4805043
:101C2000009069460948FFF715FE08B172B6FEE755
:101C3000049404A905480594FFF778FD002801D015
:101C400072B6FEE706B010BD00080040AC000020F0
:101C5000FEE7FEE770477047FFF738BA30B593B03C
:101C600030216846FEF777FB14210CA8FEF773FBC2
:101C70001C480025016841F080510160006800F0B7
:101C8000805011901848016821F48041016000687B
:101C9000022400F480401190012000900004019083
:101CA0008001CDE9064008AA0420542182E81300EF
:101CB0000B906846FFF76EFB08B172B6FEE70CA901
:101CC0000F2081E831004FF480500F9010900221D6
:101CD0000CA8FFF795FA002801D072B6FEE713B002
:101CE00030BD0000403802400070004002480168EA
:101CF00041F470010160704788ED00E00148FFF792
:101D000018BE0000AC000020F0B50268254C264D3E
:101D1000264E274F274B4FF0804CA04209D06045FC
:101D200007D0A84205D0B04203D0B84201D09842B3
:101D300004D122F0700E4A6842EA0E02A0421BD083
:101D4000604519D0A84217D0B04215D0B84213D080
:101D5000984211D0184DA8420ED0184DA8420BD071
:101D6000174DA84208D0174DA84205D0164DA842DD
:101D700002D0164DA84203D122F44075CA682A4306
:101D80004D6922F080022A4302608A68C2620A68B2
:101D90008262A04201D0984201D109690163012108
:101DA0004161F0BD00000140000400400008004017
:101DB000000C00400004014000400140004401408C
:101DC0000048014000180040001C00400020004076
:101DD00010B5846842EA032224F47F440A43224374
:101DE000826010BD826822F070020A4342F007014F
:101DF0008160704710B5036A046A24F0010404622C
:101E0000846924F0F00444EA021423F00A020A432D
:101E10008461026210BD10B5036A23F010030362EF
:101E20008369046A23F4704343EA023224F0A00376
:101E300043EA01118261016210BDFEE70907090E44
:101E4000002804DB00F1E02080F80014704700F067
:101E50000F0000F1E02080F8141D704708B5FFF76F
:101E60003DF9FFF7FBFEFFF799FE1248016841F4C8
:101E7000800101600068002200F48000009011469B
:101E80003820FFF78BF93820FFF77AF9FFF746FE85
:101E9000FFF764FEFFF706FEFFF7A6FE05481030C9
:101EA000016841F000710160006800F0007000906E
:101EB000FEE70000303802404FF04070E1EE100ABB
:101EC0007047000610160006101600000000000003
:101ED000000001020304060708090000FC1E0008B8
:101EE0000000002014000000C4010008101F0008BA
:101EF00014000020A4070000E0010008000000001A
:101F00000100000010000000000000000024F400A8
:040000050800018965
:00000001FF
