:020000040800F2
:100000006008002029020008F5240008ED240008FB
:10001000F1240008610400080D270008000000001A
:10002000000000000000000000000000FD240008A7
:100030008904000800000000F924000801250008D8
:10004000430200084302000843020008430200087C
:10005000430200084302000843020008430200086C
:10006000430200084302000843020008430200085C
:10007000430200084302000843020008430200084C
:10008000430200084302000843020008430200083C
:100090006504000843020008430200084302000808
:1000A000430200084302000843020008430200081C
:1000B0004302000843020008C52500084302000867
:1000C00043020008430200084302000843020008FC
:1000D00043020008430200084302000843020008EC
:1000E00043020008430200084302000843020008DC
:1000F00043020008430200084302000843020008CC
:1001000043020008430200084302000843020008BB
:1001100043020008430200084302000843020008AB
:100120007D0400084302000843020008430200085F
:100130004302000800000000000000004302000825
:10014000710400084302000843020008430200084B
:10015000430200084302000843020008430200086B
:10016000430200084302000843020008430200085B
:1001700043020008430200080000000000000000E5
:10018000430200084302000800F002F800F03CF8C7
:100190000AA090E8000C82448344AAF10107DA45E2
:1001A00001D100F031F8AFF2090EBAE80F0013F0F8
:1001B000010F18BFFB1A43F001031847FC2E000083
:1001C0001C2F0000103A24BF78C878C1FAD8520713
:1001D00024BF30C830C144BF04680C6070470000C1
:1001E0000023002400250026103A28BF78C1FBD840
:1001F000520728BF30C148BF0B6070471FB502F0DF
:1002000042FF1FBD10B510BD00F0A9F81146FFF761
:10021000F5FF02F07DFA00F0C7F803B4FFF7F2FF34
:1002200003BC00F0CFF800000948804709480047A8
:10023000FEE7FEE7FEE7FEE7FEE7FEE7FEE7FEE796
:10024000FEE7FEE704480549054A064B70470000F3
:10025000B125000889010008600200206008002024
:10026000600400206004002053EA020C00F0698062
:100270002DE9F04B4FF00006002B1FBFB3FA83F5BA
:1002800003FA05F424FA05F65E4012BF1643B2FAEB
:1002900082F502FA05F4C5F120051EBF22FA05FC1D
:1002A00044EA0C04203556EA044C4FEA144418BFC3
:1002B000641C4FF000084FF00009904271EB030CF2
:1002C00039D3002919BFB1FA81F701FA07F6B0FA5C
:1002D00080F700FA07F6C7F120071EBF20FA07FCD7
:1002E00046EA0C062037B6FBF4FCA7EB0507103FE7
:1002F00007F01F0BCBF120062CFA06F60CFA0BFBCD
:1003000044BFB3460026202FA4BF5E464FF0000B2B
:100310005BEA060C08BF4FF0010B19EB0B0948EB29
:100320000608ABFB027C06FB02CC0BFB03CCC01B1C
:1003300071EB0C01C1E70B46024641464846BDE859
:10034000F08B13B5084318BF4FF0FF300146AFF3F1
:100350000080BDE81C407047704770477047754685
:1003600000F02CF8AE4605006946534620F0070021
:10037000854618B020B5FFF765FFBDE820404FF077
:1003800000064FF000074FF000084FF0000BAC469E
:10039000ACE8C009ACE8C009ACE8C009ACE8C009E9
:1003A00021F007018D46704710B50446AFF3008079
:1003B0002046BDE81040FFF730BF000000487047FE
:1003C0001000002001491820ABBEFEE72600020005
:1003D000704700000146806B036C026C13F0500FF5
:1003E00008D0D20648BF00F0FFB8806BC26C084648
:1003F000104700BF42F40071016401688A6812F07E
:10040000405F01D000F0ECB8027E002AFAD1CA6A3F
:1004100012F4700F02D08A685205F3D44A6822F0B1
:1004200020024A60016C21F480710164016CC904EE
:1004300048BF00F0D5B8016C41F00101016400F043
:10044000CFB80000806B40210164416C41F0040191
:10045000416400F0C9B80000806B00F0C3B8000030
:10046000FEE7000040F21410C2F2000000F010BCE1
:1004700040F2EC00C2F2000000F00ABC40F2B01002
:10048000C2F2000000F00EBF70470000EFF31080D2
:1004900072B600BFFEE7000070B581B00022009286
:1004A00090F83C20012A03D10221084601B070BD1A
:1004B0000E6801220A2E80F83C2009D3B2B2520005
:1004C000D0F800E012FA86F21E3A0EF10C0305E0B5
:1004D000D0F800E006EB46020EF110034FF0070CD7
:1004E0001D680CFA02F4A5431D608D681C6805FAAE
:1004F00002F222431A60496806290FD801EB8101F4
:100500004A1F71461F2351F8345F934025EA0303C5
:100510000B60B3B203FA02F214E000BF01EB8103F7
:100520000C29B2B204D8714651F8304F233B03E096
:10053000714651F82C4F413B1F259D4024EA05058B
:100540009A400D600B6842F2043CC4F2010C1A435D
:10055000ACF541739E450A603BD1122E06D1DCF802
:10056000001041F48001CCF8001032E026F00101C7
:1005700010292ED1DCF80010102E41F40001CCF827
:10058000001026D140F20C01C2F2000109684DF6BC
:100590008362C4F21B32A1FB0212910C01EB8101B8
:1005A000490000910099A1B1009901390091009989
:1005B00079B1009901390091009951B1009901393F
:1005C0000091009929B10099013900910099002901
:1005D000EAD1002180F83C10084601B070BD00004F
:1005E000704700007047000070470000002804BFFB
:1005F0000120704710B50446006C00283ED0206CE6
:10060000C00645D4206C41F202118843023042F208
:1006100004312064C4F20101086820F4403008600D
:100620000A6894E809101A43D4F810E00A60416897
:10063000012321F4807141604168C0F6007341EAF2
:100640000E214160416821F040714160416841EAFA
:100650000C014160816821F400618160E168826879
:1006600011438160A16A8268994222F070628260BF
:10067000826813D122F0405119E000BF204600F0FB
:1006800065F80020606484F83C00206CC006B9D591
:100690000120002184F83C1010BD00BF114381608F
:1006A000816821F040518160E16A82681143816074
:1006B000816821F0020181608168227E94F82030F7
:1006C00041EA42018160416883B141F400614160C7
:1006D00041684EF2000221F460414160616ACFF648
:1006E000FF72436802EB4131194301E021F40061DC
:1006F0004160C16A40F2000C21F47001C162E269FC
:100700006169CFF6F07CC36A0CEB02521A43C262F5
:10071000826822F40072826094F83020836843EA91
:1007200042228260826822F480628260826842EAA9
:100730008121816000206064216C012262F301014B
:100740002164002184F83C1010BD000070B586B013
:10075000044642F200002168C4F2010000268142F2
:100760000596049602D006B070BD00BF43F6300176
:100770000096C4F202014A6900F5604042F48072BA
:100780004A614A6902F480720092009A00960A68EF
:1007900042F001020A60096801F00101009100992C
:1007A000022101910321CDE9021601A900F05CFFAD
:1007B00040F2B01546F21040C2F20005C4F2020049
:1007C0004FF48061C5E9000605F110004FF4805236
:1007D0004FF480434FF4807C80E80E102846C5E932
:1007E0000266C5E9086600F03DFE002818BFFFF765
:1007F0004DFEA563AC6306B070BD0000B0B582B01D
:1008000004460020019094F83C00012802D1022007
:1008100002B0B0BD94460A460120216884F83C002D
:100820008868C00729D188684DF6836540F00100CB
:10083000886040F20C00C2F200000068C4F21B3570
:10084000A0FB0505A80C00EB400001900198A0B1A9
:10085000019801380190019878B101980138019010
:10086000019850B1019801380190019828B1019880
:100870000138019001980028EAD18868C00503D5A5
:10088000886820F4807088608D68206CED0709D13D
:1008900040F010002064606C40F0010060640020B3
:1008A00002B0B0BD40F20175A84300F5807020642D
:1008B0004868400504D5206C012565F30D3020649F
:1008C000256C0020ED044FF0000544BF656C25F059
:1008D0000605656484F83C00A06B40F2D53540F213
:1008E0005943C0F60005C0F60003C0E90F5340F2BB
:1008F0004543C0F60003C3646FF022030B604B68EE
:1009000042F2080543F080634B608B68C4F2010536
:1009100043F480738B604C31634600F055FED5F88C
:10092000FC122068C9060FD0A5F108018842B6D193
:10093000286810F0405FB2D1286840F080402860FD
:10094000002002B0B0BD00BF42F20001C4F20101BC
:10095000884217D042F20021C4F2010188420DD032
:1009600042F20011C4F20101884298D1D5F8FC127C
:10097000C90607D005F5FC71884290D1D5F8FC1264
:10098000C9068CD4816811F0405F7FF488AF81681C
:1009900041F080418160002002B0B0BD90F820207D
:1009A000013A012A08D8006800F1140200201368F7
:1009B00019431160704700BF00F1240201204FF479
:1009C00080211368194311607047000010B590F83A
:1009D00020E0D0F800C0AEF1010EBEF1010FDCF84E
:1009E00008E011D81EF0E05F18D0CEF3016EBEF122
:1009F000030F1DD100F1240101204FF400020B6808
:100A00001A430A6010BD00BF00F1240101204FF419
:100A100080220B681A430A6010BD00BF00F1240158
:100A200001204FF400120B681A430A6010BD00BF8A
:100A3000012000FA0EF01860886828B14B68CC6875
:100A400044EAC303034303E00868CB6843EA405326
:100A50000CEB0E10C0F880310B69C0F88431097DB1
:100A6000012905D100F5C2710B6843F480730B6056
:100A70005168C0F88C11126800F5C071C0F8882167
:100A8000002001220B681A430A6010BDB0B590F82F
:100A90002020013A012A2FD846F20060C4F200005B
:100AA000026842F001020260026822F47C52026095
:100AB000D1F814E0CC694A6A0368012C43EA0222A7
:100AC00002600EF01F024FF0010303FA02F2C36945
:100AD0006FEA020C23EA0203C36113D02CBBC36884
:100AE00003EA0C03C360CB688C8844EA034300EB41
:100AF000CE0423640B4611E0416A41F48021416237
:100B00000120B0BDC3681343C3600B688C8844EAFE
:100B1000034300EBCE04236401F10C038C681B88B3
:100B200043EA044300EBCE04636443688D6943EAFF
:100B30000204D1F810E0096A002D08BF03EA0C0492
:100B400044604369BEF1000F43EA020408BF03EAB0
:100B50000C040129446102D1C1691143C1610168DA
:100B600021F0010101600020B0BD000070470000CD
:100B700010B590F82040013C012C71D8D0F800C08D
:100B8000002977D0DCF81040A40777D00CEB011CCB
:100B9000DCF8B0410CF5D87E14F004049460DCF865
:100BA000B04119BFE4085460640D1460DEF80040E1
:100BB000002904F00204D460DCF8B44104F00F040E
:100BC0001461DCF8B441C4F307249461DCF8B44147
:100BD0004FEA14445461DCF8B8211A70026802EB41
:100BE0000112D2F8B8214FEA12225A70026802EBC1
:100BF0000112D2F8B8214FEA12429A70026802EB51
:100C00000112D2F8B8214FEA1262DA70026802EBE0
:100C10000112D2F8BC211A71026802EB0112D2F85B
:100C2000BC214FEA12225A71026802EB0112D2F87B
:100C3000BC214FEA12429A71026802EB0112D2F80B
:100C4000BC214FEA1262DA71006814BF00F1100192
:100C500000F10C01002020220B681A430A6010BD2D
:100C600000F1240101204FF480220B681A430A602E
:100C700010BD00BFDCF80C40A40787D100F12401AF
:100C800001204FF400120B681A430A6010BD0000E7
:100C90002DE9F04F81B0044600684669D0F8049011
:100CA0008768D0F80CB0D0F810A0D0F81880F10701
:100CB00004D1002530071DD424E000BFF90710D06F
:100CC0000121BA07816009D4780700F1AF803807A5
:100CD00000F1B680204600F0D7FA02E0204600F08E
:100CE000D5FA0025F80500F18780F80300F1B180FE
:100CF000300707D51BF0100004D0206845F40075BC
:100D00001021C160700708D51BF0080005D02068CD
:100D10000821C160204600F0F5F9B00706D520682B
:100D2000C068800702D0204600F0EEF9700607D5B3
:100D30001AF0100004D0206845F48065102101618C
:100D4000B00608D51AF0080005D020680821016116
:100D5000204600F019FAF00606D5206800698007E1
:100D600002D0204600F012FAB00308D519F01000A6
:100D700005D0206810214160204600F055FAF003AC
:100D800008D519F0080005D02068082141602046E8
:100D900000F086FA300440F19B805FEA497040F130
:100DA000948006F4807008EA102028435FEA887176
:100DB000014648BF41F00201B20558BF01465FEA53
:100DC00048700D4648BF45F00405700558BF0D46F4
:100DD000300540F17A8018F0700000F0768010380D
:100DE000000905286CD8DFE800F003595D616569EA
:100DF00045F0080564E000BF20684FF48071BA0533
:100E000081600BD4780515D438051DD4204600F038
:100E10003FFAF8037FF56CAF1BE000BF204600F0FF
:100E200039FAF8037FF564AF13E000BF4FF40065B3
:100E300058E700BF05F50055F8037FF559AF08E006
:100E40004FF480554EE700BF05F58045F8037FF568
:100E50004FAF20684FF48031BA0381600AD4780321
:100E600010D4380314D4204600F016FA30073FF5AA
:100E700041AF47E7204600F011FA30073FF53AAF9F
:100E800040E700BF05F5004530073FF533AF39E7D0
:100E900005F5803530073FF52DAF33E745F01005F8
:100EA0000EE000BF45F020050AE000BF45F0400518
:100EB00006E000BF45F0800502E000BF45F4807504
:100EC0002068816921F070018161206804214160FE
:100ED00055B1606A40EA05012046616201B0BDE893
:100EE000F04FFFF743BE00BF01B0BDE8F08F000038
:100EF000B0B5C8B1044690F8200010B9204600F003
:100F000071F82068016841F00101016000F080FC87
:100F1000054600BF20684168C90707D100F078FC8A
:100F2000401B0B28F6D312E00120B0BD016821F070
:100F30000201016000F06CFC054600BF20684168BA
:100F400089070DD500F064FC401B0B28F6D3606ABE
:100F5000052140F400306062012084F82010B0BD0B
:100F6000217E0268012922F0800208BF80320260DF
:100F7000617E0268012922F0400208BF403202600F
:100F8000A17E0268012922F0200208BF20320260FF
:100F9000E17E0268012922F0100218BF10320260BF
:100FA000217F0268012922F0080208BF083202608E
:100FB000617F0268012922F0040208BF0432026046
:100FC000D4E901C2D4E9033561691A432A431143C4
:100FD000ACF101021143C16100200121606284F87B
:100FE0002010B0BD10B586B0006846F60002C4F20D
:100FF000000200219042CDE90411CDE902110191D6
:1010000032D046F20041C4F20001884277D140F26A
:101010006411C2F200010A6843F64000C4F2020003
:10102000531C0B6052B900210091016841F000711E
:101030000160016801F000710091009900210091A8
:1010400050F8101C142441F0010140F8101C50F815
:10105000100C4FF4C05100F00100009000980020E7
:10106000C4F2020037E000BF43F64000C4F20200C1
:101070000091016841F080610160016801F08061C8
:101080000091009940F26411C2F200010A68531CF9
:101090000B6052B900210091016841F000710160BC
:1010A000016801F00071009100990021009150F851
:1010B000101C402441F0020140F8101C50F8100CA4
:1010C0004FF4405100F00200009000980020C4F25C
:1010D000020000F58060019102210291002103913C
:1010E000032104910921059101A900F0BDFA2046D0
:1010F0000021002200F010FC204600F0F9FB06B0B1
:1011000010BD00007047000010B540F27004C2F23C
:10111000000404F1600204F130030021FFF728FD10
:10112000206E5A2808DC0D2812D04E2814D194F8CD
:101130003600E070A07010BDB0F5D27F0ED05B28F5
:1011400018BF10BD94F83700E070207010BD00BFCC
:1011500094F83100E070607010BD00BF94F8310069
:1011600094F83210E070217140EA012044F250619D
:10117000401A48F21F51C5F2EB1150FB01F0410932
:1011800001EBD070E08010BD70470000B0B540F2B8
:101190007005C2F2000505F1380405F16002012175
:1011A0002346FFF7E5FC286EC11E192988BFB0BD94
:1011B00005F1100005F13B0C05F13A0E05F139037C
:1011C000DFE801F02031313131310E31313131314F
:1011D000313131313131123131313131311600BFDC
:1011E00005F11C000EE000BF05F114000AE000BF8D
:1011F00005F1180005F13F0C05F13E0E05F13D0328
:1012000005F13C0421781A789EF80030A9729CF808
:10121000004041EA022141EA034141EA0461EA72E5
:101220002B736C730160B0BD70470000B0B504460D
:1012300090F8200001281DD1022084F820002068A9
:10124000016821F00101016000F0E2FA054600BFEB
:1012500020684068C00713D000F0DAFA401B0B2862
:10126000F6D3606A40F400306062052084F8200004
:101270000120B0BD606A40F4002060620120B0BD72
:1012800000206062B0BD00007047000070470000A1
:101290007047000070470000704700007047000072
:1012A00070470000F0B581B004460020009040F285
:1012B0000C00C2F200000268D4E9166048F2B513CF
:1012C00037680821C1F64E3381403942A2FB03251D
:1012D0000CD0226813685B0708D5136823F0040359
:1012E0001360B160616D41F00101616501218140D0
:1012F000394208D022685269120604D5B160616D86
:1013000041F00201616504218140394208D0226820
:101310001268920704D5B160616D41F00401616506
:1013200010218140394217D020680268120713D576
:10133000B16002680168520308D4C90508D4016885
:1013400021F008010160216C21B905E008033FD4B8
:10135000216C09B120468847E16D202000FA01F296
:101360003A4241D020680368DB063DD5B26094F86C
:1013700035300268052B1BD122F01602026042694B
:1013800022F080024261226C0AB9A26C1AB1026892
:1013900022F0080202603F208840B060012084F8FB
:1013A0003500216D0020002984F8340052D157E027
:1013B0000168520310D4C90512D4016821F010014C
:1013C0000160012084F83500002084F8340007E033
:1013D000A16C0029BED1BFE7080301D4616C00E015
:1013E000E16B09B120468847606DC8B3606DC007E6
:1013F0002ED0052084F835002068A90A026822F062
:1014000001020260009A01328A4200921AD80268F0
:10141000D20717D0009A01328A42009212D802688D
:10142000D2070FD0009A01328A4200920AD802688D
:10143000D20707D0009A01328A42009202D802688D
:10144000D207DFD1012084F83500002084F8340071
:10145000E16C29B1204601B0BDE8F040084700BF6B
:1014600001B0F0BD2DE9F041044600F0D1F9ECB136
:101470000546022084F835000020216884F83400F5
:10148000086820F00100086021680868C00711D0D2
:1014900000F0BEF9401B0528F6D9032520230320C0
:1014A000636584F83550BDE8F08100BF0120BDE8D8
:1014B000F08100BF086848F23F02CFF21002D4E981
:1014C000013500EA020C04F10C0898E8C10143EA76
:1014D0000C032B431843D4E9072E30433843104301
:1014E000626A40EA0E00042A40EA08031CD1206B1D
:1014F000D4E90A2E40EA0E00184308604869BEF19C
:10150000000F20F0030040EA020040F0040C11D06C
:10151000B8F5005F36D0B8F1000F45D1022A46D0A9
:10152000012A3BD032B942E00B60486920F0070045
:1015300040EA020C01F0F8004AF6AB221038CAF675
:10154000AA22A0FB02231A0943F2B003C0F600034B
:101550009A5C40F2FF335F284FF03F00C1F814C09F
:1015600021EA030100FA02F088BF0431C4E916122F
:101570008860002301250020636584F83550BDE8AC
:10158000F08100BF032AD5D8012540230120DFE8E0
:1015900002F0030E030500BF82E700BFAEF1C0708A
:1015A000B0FA80F0400904E0032A04D3C2D1CEF39C
:1015B00000600028BED0012540230120636584F827
:1015C0003550BDE8F081000070B590F834C0BCF132
:1015D000010F46D04FF0010C80F834C0D0F858E02D
:1015E00090F835C0BCF1010F38D14FF0020C80F8F3
:1015F00035C04FF0000CC0F854C0D0F800C084686B
:10160000056CC06DDCF80060402C26F48026CCF818
:101610000060CCF804300B4604BF13460A463F2155
:1016200001FA00F0CCF80830CCF80C20CEF8080015
:10163000DCF8000040F01600CCF800002DB1DCF81A
:10164000000040F00800CCF80000DCF8000040F09A
:101650000100CCF80000002070BD00BF002180F820
:101660003410022070BD00002DE9F04F82B000F16F
:101670003E4241F6004502F1FF77C4F2020508221E
:1016800043F6004E4FEAB726A84208BF0722C4F22D
:10169000010E072E38BF4FEAB7220125002600278A
:1016A0004FF00008009208E008F101080437B8F193
:1016B000100F06F1020600F0A7800C6805FA08F981
:1016C00014EA090FF0D0D1F804B003220BF0030C98
:1016D000ACF10104B240012C6FEA020A10D8826812
:1016E000CC6802EA0A02B440224382604268CBF32B
:1016F000001422EA090204FA08F42243426005E0D9
:10170000BCF1030F02D14FF0030C20E0C2688C68DB
:1017100002EA0A02B4402243BCF1020FC26016D1B1
:101720006FF0030202EA58020244D2F820C007F028
:101730001C050F230C69AB402CEA030304FA05F5E2
:101740002B431362D1F804B001250BF0030C02689F
:101750000CFA06F302EA0A021A431BF4403F026045
:10176000A2D0002243F644030192C4F202031A6895
:101770004FF6084C42F480421A601A68CFF6FF7C9C
:1017800002F480420192019A28F00302724452F856
:101790000C3007F00C050F24AC40A343009C04FA66
:1017A00005F52B4342F80C30DEF808204B6842EA7E
:1017B000090543F60C4CDC0258BF22EA0905CEF8B5
:1017C0000850C4F2010CDCF800209C0242EA090532
:1017D00058BF22EA0905CCF80050DEF804209C032B
:1017E00042EA090558BF22EA0905CEF80450DEF89E
:1017F0000020DB0342EA090558BF22EA0905CEF8BA
:101800000050012550E700BF02B0BDE8F08F000096
:1018100040F25820C2F200000068704740F2040015
:1018200040F25821C2F20000C2F2000100780A68BA
:10183000104408607047000080B543F60040C4F2D1
:101840000200016841F400710160016841F48061A7
:101850000160016841F480710160032000F088F8A4
:101860000F2000F005F800F027F8002080BD0000F0
:1018700070B540F20406C2F2000640F20C01327864
:10188000C2F200014FF47A730968B3FBF2F2044626
:10189000B1FBF2F1084600F01BFB0F2C4FF00105E5
:1018A00008D838B94FF0FF3021460022002500F05B
:1018B00033F87460284670BD82B0002043F64001C2
:1018C0000190C4F202014A6842F480424A604A68C8
:1018D00002F480420192019A0090086840F0805022
:1018E0000860086800F080500090009802B07047CF
:1018F000002848BF7047C1B200F01F00012202FA61
:1019000000F04EF20012CEF2000242EAD10121F0C4
:10191000030108607047000010B54EF60C5CCEF273
:10192000000CDCF80030C3F3022E8EF00704042C08
:1019300028BF0424BEF103034FF0FF3E0EFA04F467
:1019400038BF0023A14399400EFA03F39A43114391
:1019500000F00F0200F160430901043A03F564430B
:101960006244002848BF02F10C03197010BD00004A
:101970004EF60C51CEF200010A684FF6FF031A40F2
:1019800060F30A2242F0806040F0FD70086070470A
:101990002DE9F041002800F08B8043F60808C4F2DE
:1019A00002080446D8F8F8030D4600F00700884204
:1019B00007D288F8F853D8F8F80300F00700A842D7
:1019C00076D12068810717D5410705D5D8F80010D2
:1019D00041F4E051C8F80010010705D5D8F800100F
:1019E00041F46041C8F80010D8F80010A26821F056
:1019F000F0011143C8F80010C0073FD1D8F8F80330
:101A000000F00700A84207D988F8F853D8F8F8037F
:101A100000F00700A8424BD12068410707D5D8F84D
:101A20000010E26821F4E0511143C8F800100007EB
:101A300008D5D8F80000216920F4604040EAC100D0
:101A4000C8F8000000F054F8D8F8001043F2A002E3
:101A5000C1F30311C0F60002515C40F20C0220FAFF
:101A600001F140F20800C2F200000068C2F2000278
:101A70001160FFF7FDFE0020BDE8F0816068811E67
:101A8000022907D258F8081C89015CBF0120BDE873
:101A9000F08111E0012807D158F8081C89035CBFC8
:101AA0000120BDE8F08107E058F8081C890703D43D
:101AB0000120BDE8F08100BFD8F8001021F003013B
:101AC0000843C8F80000FFF7A3FE064641F2883736
:101AD000D8F80000616800F00C00B0EB810F8DD0E9
:101AE000FFF796FE801BB842F2D90320BDE8F081D3
:101AF00010B543F60404C4F20204606800F00C015F
:101B000042F200400829C0F2F40007D0042918BFAF
:101B100010BD41F20020C0F27A0010BD216801F032
:101B20003F02216823684902C3F3881106D4A1FB50
:101B300000010023FEF798FB07E000BF41F2002000
:101B4000C0F27A004843B0FBF2F021680222C1F3F0
:101B5000014102EB4101B0FBF1F010BD2DE9F04174
:101B600082B0002868D00446007843F60006C0071B
:101B7000C4F202060BD0B06800F00C00042840F05C
:101B80009F803068800302D56068002854D0207898
:101B900080071AD5B06810F00C0F09D0B06800F0BB
:101BA0000C00082840F0A6807068400200F1A28076
:101BB0003068800702D5E06801283DD1306821698E
:101BC00020F0F80040EAC10030602078000737D4E8
:101BD000207840074CD4A56955B3B06800F00C00DC
:101BE000082840F0BB80012D26D07068E16900F420
:101BF00080028A4220D1216A00F03F028A421BD132
:101C000047F6C071626A0140B1EB821F14D1A16A2C
:101C10004FF6FF73C903994300F44032A1F58031B8
:101C20008A4209D1E16A00F07060B0EB016F03D124
:101C3000002002B0BDE8F081012002B0BDE8F081D3
:101C40006069002840F20000C4F2472076D00121EC
:101C5000C0F8801EFFF7DCFD054600BF706F8007EF
:101C6000B6D4FFF7D5FD401B0228F7D9DDE000BF51
:101C7000306C10F080580AD100200190306C40F098
:101C800080503064306C00F080500190019847F231
:101C90000007C4F200073868C00541D4386840F432
:101CA00080703860FFF7B4FD054600BF3868C00596
:101CB00036D4FFF7ADFD401B0228F7D9B5E000BFD1
:101CC000B06800F00C00082803D1706840023FF5AE
:101CD00058AF6068B0F5803F07D0B0F5A02F40F056
:101CE0008D80306840F480203060306840F480306F
:101CF00030608DE0E068002852D00020C4F2472018
:101D000001210160FFF784FD054600BF30688007B0
:101D10003FF554AFFFF77CFD401B0228F6D984E065
:101D2000A068012805D005284ED1306F40F004008E
:101D30003067306F40F0010030674FE00021C0F89D
:101D4000801EFFF765FD0546706F80077FF540AF89
:101D5000FFF75EFD401B0228F6D966E00027C4F2BB
:101D6000472700203866FFF753FD022D05460BD1AB
:101D7000306880015ED5FFF74BFD401B02284FF015
:101D80000300F5D955E700BF306880017FF550AFFB
:101D9000FFF73EFD401B02284FF00300F4D948E74F
:101DA0000020C4F2472000210160FFF731FD054605
:101DB000306880077FF509AFFFF72AFD401B022836
:101DC0004FF00300F4D934E7316F002821F001010E
:101DD0003167316F21F0040131674DD0FFF718FDF5
:101DE000054641F2883700BF306F800756D4FFF7B1
:101DF0000FFD401BB842F7D917E000BF316800283B
:101E000021F480313160316821F4802131604FD07C
:101E1000FFF7FEFC054600BF306880033FF5B7AE14
:101E2000FFF7F6FC401B6428F6D9032002B0BDE89A
:101E3000F08100BF04F11C052FCD084340EA821059
:101E4000D9034FF6FF729143A1F5803140EA056056
:101E50000843706001203866FFF7DAFC044600BFD3
:101E6000306880013FF5E4AEFFF7D2FC001B02288A
:101E70004FF00300F4D9DCE6FFF7CAFC054641F257
:101E8000883700BF306F800708D5FFF7C1FC401BC3
:101E9000B8424FF00300F5D9CBE600BFB8F1000F10
:101EA0007FF499AE306C20F08050306493E600BF30
:101EB000FFF7AEFC054600BF306880037FF567AED4
:101EC000FFF7A6FC401B64284FF00300F4D9B0E6EE
:101ED000411E0020B0EB116F1CBF012070474EF275
:101EE0001002CEF2000251604EF62351CEF20001F4
:101EF000F0230B700721906011607047704700005D
:101F00007047000010B590F83C20012A4FF0020203
:101F100051D080F83D200268D2F804E0D2F808C021
:101F20000C682EF07003234341F2FF74C4F20004E6
:101F3000A24253600EDC40F2FF73C4F200039A42E7
:101F400016DCB2F1804F2BD040F20043C4F2000304
:101F500024E000BF40F2FF33C4F201039A4213DCD5
:101F600041F60003C4F200039A4219D0002313E0A3
:101F700040F60003C4F200039A4211D040F6004339
:101F8000C4F200030AE000BF44F20003C4F20103FC
:101F90009A4205D040F20043C4F201039A4204D1B0
:101FA00049682CF08003194391600121002280F8D8
:101FB0003D1080F83C20104610BD0000002804BFF2
:101FC0000120704710B5044690F83D0028B9002064
:101FD00084F83C00204600F01FF8022084F83D0001
:101FE0002068211D00F0F4FA012084F8460084F8EE
:101FF0003E0084F83F0084F8400084F8410084F8F3
:10200000420084F8430084F8440084F8450084F8D2
:102010003D00002010BD000080B582B0006840F691
:102020000001C4F2000188421CBF02B080BD002044
:10203000019043F64000C4F202000168002241F022
:10204000040101600068002100F004000190019883
:102050001E20FFF761FC1E2002B0BDE88040FFF7A4
:1020600047BC000090F83D1001291CBF01207047BB
:10207000022180F83D10006841F2FF72C168C4F28D
:102080000002904241F00101C1600DDC40F2FF719D
:10209000C4F20001884215DCB0F1804F2AD040F232
:1020A0000041C4F2000123E040F2FF31C4F201011B
:1020B000884213DC41F60001C4F20001884219D0C5
:1020C000002113E040F60001C4F20001884211D063
:1020D00040F60041C4F200010AE000BF44F20001F2
:1020E000C4F20101884205D040F20041C4F201016E
:1020F000884206D1816801F00701062904BF00204B
:102100007047016841F00101016000207047000044
:1021100080B590F83C20012A4FF0020200F0C28006
:1021200080F83D20D0F800C04FF67772DCF8083018
:1021300023EA0202CCF808200B684F2B28DC1F2B67
:1021400044DD202B45D0302B43D0402B40F0AC80D9
:10215000D1F804E0C968DCF82030DCF8202022F057
:102160000102CCF82020DCF8182022F0F00242EA2C
:10217000011123F00A0242EA0E02CCF81810CCF842
:102180002020DCF8081041F0470121F0300180E008
:102190006F2B27DDB3F5005F48D0B3F5805F7AD0B1
:1021A000702B40F08180D1E901E3C968DCF8082098
:1021B00043EA0E0322F47F4243EA01211143CCF8A3
:1021C0000810DCF8081041F0770162E00BB1102B29
:1021D0006AD1DCF8081021F07001194341F00701C1
:1021E00057E000BF502B35D0602B5DD1D1F804E013
:1021F000C968DCF8203023F01003CCF82030DCF87C
:102200001830DCF8202023F4704322F0A00243EAC7
:10221000013142EA0E12CCF81810CCF82020DCF87C
:10222000081041F0670121F0100132E0D1E901E32B
:10223000C968DCF8082043EA0E0322F47F4243EA2F
:1022400001211143CCF80810DCF8081041F480415A
:102250001FE000BFD1F804E0C968DCF82030DCF8EA
:10226000202022F00102CCF82020DCF8182022F0F7
:10227000F00242EA011123F00A0242EA0E02CCF80F
:102280001810CCF82020DCF8081041F0570121F09C
:102290002001CCF808100022012180F83D10002117
:1022A00080F83C10104680BD0122F5E77047000021
:1022B00010B5016804460869800744BFC8685FEA32
:1022C000807039D40869400744BFC8685FEA40702D
:1022D0003ED40869000744BFC8685FEA007045D46F
:1022E0000869C00644BFC8685FEAC0604AD408698C
:1022F000C0071CBFC8685FEAC07051D108690006FA
:1023000044BFC8685FEA006052D40869400644BF11
:10231000C8685FEA406053D40869800646BFC86851
:102320005FEA806010BD6FF0200220460A61BDE8C0
:102330001040FFF7E5BD00BF6FF00200086101200B
:1023400020778869800743D02046FFF7AFFF45E03C
:102350006FF00400086102202077886910F4407F44
:1023600040D02046FFF7A2FF42E000BF6FF0080018
:10237000086104202077C86980073DD02046FFF718
:1023800095FF3FE06FF01000086108202077C869D2
:1023900010F4407F3AD02046FFF788FF3CE000BFB2
:1023A0006FF001000861204600F03EF82168A5E7C3
:1023B0006FF0800008612046FFF7A0FD2168A4E7C8
:1023C0006FF040000861204600F08EF82168A3E716
:1023D000204600F025F8204600F024F8216800206F
:1023E00020776FE7204600F01BF8204600F01AF82F
:1023F0002168002020776CE7204600F011F8204685
:1024000000F010F821680020207769E7204600F0EE
:1024100007F8204600F006F821680020207766E7DC
:10242000704700007047000070B582B040F2700540
:1024300040F20006C2F20005C2F20006696A328864
:102440000446914218D395ED110AB8EE400A10EEF9
:10245000100A00F0A7FD9FED200B53EC102B00F0AD
:10246000B5FB9FED1F0B53EC102B00F0D7FA00F0DB
:102470007DFB288100206862A86A7188884213D396
:102480000E222946002041F8482F01900422C1E97C
:102490000200087540F2EC000A61A1F11C03C2F2CF
:1024A000000001AAFEF792FA206840F60001C4F28B
:1024B0000001884202D002B070BD00BF05F12002C9
:1024C00007CA05F1200301300131013207C302B010
:1024D00070BD00BF00BF00BFCFF753E3A59BD43F43
:1024E0000000000000A071C070470000FEE700007F
:1024F000FEE70000FEE700007047000070470000A4
:10250000FFF78CB9B0B592B0002443F64000CDE996
:102510000A44CDE908440594CDE90344CDE90144DA
:102520000094C4F202000168022541F0805101606C
:10253000006800F080500090009847F2000000947E
:10254000C4F20000016821F4804101600068542158
:1025500000F4804000900098012006904FF48030F5
:1025600007904FF480000D9004200E90119006A863
:102570000C95CDE90F15FFF7F1FA28B1EFF31080B4
:1025800072B600BFFEE700BF0F20CDE901054FF492
:102590008050CDE9040001A802210394FFF7F8F967
:1025A00020B1EFF3108072B6FEE700BF12B0B0BDED
:1025B0004EF68850CEF20000016841F470010160CF
:1025C0007047000040F21020C2F20000FFF770BE1A
:1025D00010B540F6FF3E0368C4F2000E40F2004C16
:1025E0007045C4F2010C27DCB0F1804F31D040F2CD
:1025F0000042C4F2000290422BD040F60002C4F226
:102600000002904225D041F6FF72C4F200029042CF
:1026100029DC70453CDCB0F1804F5FD040F20042D5
:10262000C4F20002904259D040F60002C4F2000207
:10263000904253D056E000BF40F60042C4F2000280
:10264000904206D0604504D00022C4F201029042BC
:10265000D9D14A6823F07003134341F6FF72C4F2E4
:1026600000029042D5DD43F6FF72C4F201029042AF
:1026700022DC42F20002C4F2000290422ED000227C
:10268000C4F20102904229D0604527D02AE000BF61
:1026900040F60042C4F2000290421FD041F6000210
:1026A000C4F20002904219D041F60042C4F2000286
:1026B000904213D016E000BF44F20002C4F20102BF
:1026C00090420BD044F60002C4F20102904205D0C1
:1026D00044F20042C4F20102904203D1CA6823F4DA
:1026E0004073134323F080024B69D1F800E08C68FB
:1026F0001A430260C46240F48062C0F828E0624578
:1027000004BF096901630121416110BDFEE70000BA
:1027100086B043F6300640F60007C4F20206C4F263
:102720000007FFF789F8FFF7EDFE002502953068F6
:10273000002140F0040030603068002200F0040006
:10274000029002980295306840F080003060306856
:1027500000F08000029002980295306840F001007D
:102760003060306800F001000290029802953068F5
:1027700040F002003060306800F0020002900298E1
:102780000295306840F480003060306800F48000CA
:10279000029002983820FFF7BFF83820FFF7A8F81A
:1027A00040F2EC04C2F2000407F5B841204640F8BC
:1027B000281F0E214FF480324FF40013C0E9011599
:1027C000C0E90352C0E905358583FEF791FB28B1C6
:1027D000EFF3108072B600BFFEE700BF4FF6FF7048
:1027E000214641F8500F0120C1E90700A1F128005E
:1027F000C1E90155C1E90355C1E905554D62FEF72F
:1028000045F928B1EFF3108072B600BFFEE700BFB4
:1028100004F128052846FEF709FD28B1EFF31080E2
:1028200072B600BFFEE700BF28460321FEF7B6F8E8
:1028300020B1EFF3108072B6FEE700BF07F5C0408D
:10284000072100254FF480324FF4001384E8230061
:102850002046C4E90352C4E90535A583FEF748FBC9
:1028600020B1EFF3108072B6FEE700BF01204FF6F3
:10287000FF72214641F8502FC4E91750C4E91B00EC
:102880002046C4E91555C4E919556567FEF7FEF8F9
:1028900020B1EFF3108072B6FEE700BF40F2EC000B
:1028A000C2F20000FEF7C2FC20B1EFF3108072B656
:1028B000FEE700BF40F2EC00C2F200001121FEF77B
:1028C0006DF828B1EFF3108072B600BFFEE700BFCD
:1028D00040F2681001230021C2F20000C0F600732C
:1028E00007F58C320124C0E90A31022305910476F0
:1028F00080F82010C36180F83040C0E90021C0E9B1
:102900000211C0E90444FDF771FE28B1EFF3108015
:1029100072B600BFFEE700BF0720049040F26810C7
:10292000C2F2000002A9CDE90244FDF7B5FD28B1CD
:10293000EFF3108072B600BFFEE700BF10200290D8
:1029400040F268100224C2F2000002A90394FDF7CD
:10295000A3FD18B1EFF3108072B6FEE740F210202D
:102960000021C2F200000591CDE90311CDE900116B
:102970004AF20F42C0E9021401618021C0E90072ED
:102980008161FFF71BFB18B1EFF3108072B6FEE711
:102990004FF48050029040F21020C2F2000002A9D1
:1029A000FFF7B6FB20B1EFF3108072B6FEE700BF71
:1029B00040F21020C2F200006946FFF7A3FA18B1F6
:1029C000EFF3108072B6FEE700200290316941F00B
:1029D00000713161316901F0007102910299029038
:1029E000306940F080603061306900F080600290B2
:1029F000029840F21020C2F20000FFF733FB40F2D1
:102A00007000C2F2000000F1400140F26810C2F212
:102A100000000222FDF7F2FEFEE7000010B591EA89
:102A2000030F48BF83F0004300F1D681841A71EB95
:102A3000030C05D2121943EB0C03001B61EB0C01D4
:102A40004FEA1154A4EB135CDFF81CE11EEA430FBC
:102A500018BF9EEA445F00F0748021EA045123EA23
:102A60000E0343F48013DCF1200E32D322FA0CFE65
:102A700010EB0E0023FA0CFE41EB0E01CCF1200E00
:102A800003FA0EFE10EB0E00CCF1200E51F1000106
:102A9000B1F5801F32D201EB045112FA0EF2BDE8FB
:102AA000104058BF7047401C38BF5FEA420218BF51
:102AB0007047002814BF20F0010041F100014FEAE7
:102AC000410313F5001F38BF7047A1F1C04100F06A
:102AD00075B9012A43EB0302ACF1200CDCF11F0EA7
:102AE00032BF4FF0000E23FA0CF310EB030041EB62
:102AF0000451B4EB115FD0D0A1EB045101F580116A
:102B0000490801EB04515FEA30000ED350F1000098
:102B100038BF12FA0EFE08D1BDE81040C9E7401CCC
:102B200038BF5FEA4202CAD1C3E7BDE810404FEAAE
:102B3000410313F5001F38BF7047A1F1C04100F0F9
:102B40003DB99EEA445F08D011EA5E0FBDE810402F
:102B500004BF01F0004100207047BDE8104070B58F
:102B600000F0DEF864FBBE3E0000E0FF4FEA4103E8
:102B70004FEA5353A3F58063D3F11E03C8BFD3F1CB
:102B8000210C0CDD4FF0004242EAC12242EA5052D1
:102B900032FA03FC8CEAE17CACEBE1707047102B5D
:102BA000C4BF0020704703F5787CBCF1FF3F04D020
:102BB0006FF0004282EA2100704770B500F0B0F873
:102BC0004992248000207047F2E7000070B5DFF8DA
:102BD00048C11CEA111E1EBF1CEA13159EEA0C0F09
:102BE00095EA0C0F00F06F8081EA03044EEAD47E70
:102BF000AE4421EA4C1123EA4C1341F4801143F412
:102C00008013AEF17F7EA1FB024CA0FB0365361959
:102C100055EB0C05A1FB034C4CF10003A0FB021C7F
:102C200016EB0C06654153F10003094218BF46F04C
:102C3000010613F4007F0BD14FEA03314FEA053050
:102C400041EA155140EA165034036FF003020AE0DE
:102C50004FEAC3214FEAC52041EA555140EA565098
:102C6000F4026FF0020202EB2E4201EB025585EAFC
:102C7000CE710AD05FEA440C18BF24F0004450F132
:102C8000000041F1000120EAD47040F2FE7C624570
:102C900000D270BDA84214BF4FF080444FF04044B2
:102CA000002E08BF0024BEF1806FA8BFA1F1C04173
:102CB000BDE8704080F2828001F1C04101F0004126
:102CC0004FF0000070470CEA13159EEA0C0F18BF76
:102CD00095EA0C0F06D081EA030E4FF000000EF0CB
:102CE000004170BD00F01CF88900013E00F007B8FB
:102CF00000F009B84FEA430C5FEA5C5C08D081EA57
:102D0000030100F05BB84FEA410C5FEA5C5CF6D16E
:102D100002494FF0000070470000FF070000F87FF5
:102D20000EF1020E2EF0030E5EF8046B364205D44F
:102D3000012A43EB030515F5001F12D8012841EBCA
:102D4000010C1CF5001F0CD80ED14FEAD17C0CEB06
:102D50004C0C0CF1020C15F5001F08BF4CEBD37C9A
:102D600004E04FF0080C01E04FEAD37C0CEB4C057B
:102D700026FA05F606F00706B6F1040C06D20EEBAD
:102D8000860CBDE870404CF0010C6047DFE80CF0A9
:102D9000090B02024FF00041A1F500214FF00000A5
:102DA00070BD19461046012851EB010418BFD4F537
:102DB000001484BF002001F0004170BD0808A0F598
:102DC00000114FEA3101704710B591EA030F48BF77
:102DD00083F000433FF52AAE841A71EB030C07D24F
:102DE0008CF0004C121943EB0C03001B61EB0C013F
:102DF0004FEA1154A4EB135CDFF8A4E11EEA430F81
:102E000018BF9EEA445F00F0B48021EA045123EA2F
:102E10006E035242C3EB6E0338BF5B1EDCF1200E23
:102E200025D322FA0CFE10EB0E0043FA0CFE41EB08
:102E30000E01CCF1200E03FA0EFE10EB0E00CCF1C9
:102E4000200E51F1000129D401EB045112FA0EF2C7
:102E5000BDE8104058BF7047401C1CBFB2F1004F86
:102E6000704700280CBF491C20F00100704712EB8E
:102E7000020E43EB030218BF4FF0010E4EEA42026E
:102E8000ACF1200CDCF11E0E56D943FA0CFE10EB0F
:102E90000E00CCF11E0E51F1FF31D5D50EF1010E11
:102EA00012FA0EFE404141EB010101EB445C5FEA86
:102EB0005C5C10D901EB045110EBDE7038BFBEF141
:102EC000004FBDE8104018BF704700280CBF491CD8
:102ED00020F00100704734D24FEAD42C24F400646F
:102EE00011F500111BD0B1FA81F20B3AA41AA41EFD
:102EF000D2F12003914030FA03F31943904001EBE3
:102F0000CC7101EB0451002CBDE81040A8BF704704
:102F100001F1C04101F000414FF000007047B0FAEC
:102F200080F310FA03F102D1BDE810407047E41AB3
:102F3000173C4805C90AE2E701EB0451BDE810401F
:102F4000704749104FEA300001EB0451BDE81040D2
:102F500002E04FF0000170474A0008BF0042F8D07D
:102F6000B2F5001F28BF704701F000414FF000008C
:102F700070479EEA445F07D011EA5E0FBDE810403B
:102F800004BF002100207047BDE8104070B5FFF776
:102F9000C7FE00BF40DFF63E104683F00041704799
:102FA0000000E0FF43004FEAD30C4FEA3C0C4340E3
:102FB0001FBF40070CF1605113F0FE4F70471CF02B
:102FC000006F03D10CF00041002070470CF000436B
:102FD00043EA507040EACC0010B500F00EF800BF94
:102FE000000000924FEA0001FFF7E8BE4FF00041F9
:102FF000A1F500214FF0000070470EF1020E2EF0F7
:10300000030E5EF8044B244204D44FEA4102B2F1AD
:103010007F4F11D84FEA4003B3F17F4F0CD80ED148
:103020004FEAD07C0CEB4C0C0CF1020CB2F17F4F50
:1030300008BF4CEBD17C04E04FF0080C01E04FEAF4
:10304000D17C0CEB4C0324FA03F404F00704B4F134
:10305000040C06D20EEB840CBDE810404CF0010CC1
:103060006047DFE80CF0070802024FF00040A0F5CF
:10307000800010BD0846420018BFD2F1807288BFA0
:1030800000F0004010BDF1EE100A4FF6FF71C0F2E3
:10309000C03120EA010040F04070E1EE100A7047B4
:1030A00000000000000000000102030406070809F8
:1030B0000006101600061016D83000080000002088
:1030C00010000000C4010008E830000810000020D3
:1030D00050080000E001000864000A000100000040
:0830E000100000000024F400C0
:040000050800018965
:00000001FF
